:40000000FFFFFFFF000004ECFFFFFFFFFFFFFFFFFFFFFFFFFFFFFFFF000084D4000085E400008644FFFFFFFFFFFFFFFFFFFFFFFFFFFFFFFFFFFFFFFFFFFFFFFFFFFFFFFF75
:40004000FFFFFFFFFFFFFFFFFFFFFFFFFFFFFFFFFFFFFFFFFFFFFFFFFFFFFFFFFFFFFFFFFFFFFFFFFFFFFFFFFFFFFFFFFFFFFFFF808080808080808080C0C0C0C0C0808070
:4000800080808080808080808080808080808080600202020202020202020202020202020101010101010101010102020202020202181818181818080808080808080808D2
:4000C000080808080808080808080802020202020214141414141404040404040404040404040404040404040404040202020280FEFEFEFEFE01FEFE02030604070803FE3A
:400100000203060407FE03FEFE03060407FE03FEFE05FEFE07FE05FEFE0506FE07FE05FEFEFEFEFE07FEFEFEFFFFFFFFFFFFFFFFFFFFFFFFFFFFFFFF3E200025730025730C
:40014000000A2D2D4572726F722D2D2C20636F6D6D616E6420697320746F6F206C6F6E672E20436F6D6D616E642069676E6F7265642E0A00257300696E666F003F002D2D24
:40018000436F6D6D616E643A25732C206E6F7420666F756E642E20456E74657220223F2220746F207365652061206C697374206F6620617661696C61626C6520636F6D6DA7
:4001C000616E64732E0A006563686F00646973706C61790073657400686578007365740073776974636800706F72740074696D6572007561727430002D2D436F6D6D616E96
:40020000643A25732C206E6F7420666F756E642E20456E74657220223F2220746F207365652061206C697374206F6620617661696C61626C6520636F6D6D616E64732E0AA3
:4002400000496E636F727265637420666F726D61742C20646973706C6179205B2274657874225D0A00496E636F727265637420666F726D61742C20646973706C6179205BF0
:400280002274657874225D0A000A417661696C61626C6520436F6D6D616E64733A0A0A006563686F205B2274657874225D0A00202D4563686F732074657874206261636B44
:4002C00020746F207468652073657269616C20706F72742E0A00646973706C6179205B2274657874225D0A00202D446973706C61792074657874206F6E20746865204C45E5
:4003000044732E0A007365742070726F6D7074205B2274657874225D0A00202D5365742074686520434C492070726F6D707420746F20746578742E0A00686578205B646598
:4003400063696D616C206E756D6265725D0A00202D446973706C6179206120646563696D616C206E756D62657220696E20686578206F6E20746865204C4544732E0A00735E
:400380007769746368205B302D325D205B2274657874225D0A00202D41737369676E73207468652074657874206D6163726F20746F206120627574746F6E2E0A00706F7266
:4003C00074205B412D4B5D0A00202D446973706C6179207468652063757272656E74207374617465206F662074686520706F72742E0A0074696D6572205B302D325D0A0001
:40040000202D446973706C6179207468652063757272656E74207374617465206F66207468652074696D65722E0A007561727430205B7370656564205B626175647261742F
:40044000655D5D205B706172697479205B6576656E7C6F64647C6E6F6E655D5D205B62697473205B377C385D5D0A00202D5365742074686520756172743020736574746901
:400480006E67732E0A00696E666F0A00202D446973706C61797320766172696F75732073797374656D20696E666F726D6174696F6E2E0A003F0A00202D446973706C617918
:2B04C000732061206D656E75206F6620434C4920636F6D6D616E64732E0A00494E4600696E66004E414E006E616E007D
:4004EC00451FC0004510B8470370E00C4510B00045010585C00209500000FDD1452000000000452100000001C00209500000FDD1452000009AA64511B584450202C4C00283
:2C052C0019031531FDD2452000000000452100000000452200000001C00219031531FDD23E0031003200F1003F8CCFFF21
:408000000800450000C07350E132450000D07350E152450000C80350B0150350B016ADA4B0170350B014ADA8B00430280370B008ADA8B00C450001F40370B0100001FFFCDF
:408040000800F10002AB7070B0040340B0107570B00CE107ADA8B00C450000C80350B014C007ADA9B00CE204F10002987070B00C0340B0087570B004E12EADA8B004031060
:40808000B0150350B0160311E150AA2100C00310E130AA2000084402A3100350B0150310B0167550B015EE17450000C87550B015E608ADA5B017EE0F30010360B017D00DD0
:4080C000C00A30017560B017EE06F10002677070B00CADA4B0170001FFFC0800450000C07550B015EE12ADA9B00CE60A7550B014EE07ADA8B00C450000C80350B014C033AC
:40810000450000C00350B014C02E450000887550B015EE12ADA9B00CE60A7550B014EE07ADA8B00C450000C80350B014C01C450000880350B014C01730487550B015EE1191
:40814000ADA9B00CE60A7550B014EE07ADA8B00C450000C80350B014C00630480350B014C002ADA4B0170001FFFC0800ADA0E142ADA0E162ADA8B037450001900370B03BA7
:40818000ADA4B019ADA8B01BADA8B01FADA8B023ADA8B027ADA8B02B0001FFFC0800F10001FD7070B03730047570B01BE3080340B03B7570B037E103ADA8B037D0D7310062
:4081C000D08A3101D0883102D0863103D0840340B03380013107AE100371B0330001FFFC08000371B03B0001FFFC080457E16FE1F100061F0370B01B0341B01B8102F100CC
:40820000070157C0ADDE7FFCEE03ADA8B01BC0286FC16FE20343B01BF10006B330047570B01BE3080330B01D78E07FFC09C00020ADAAB01B0330B01D78E07FFCAC00FFFBBE
:40824000ADA5B019E6040331B019F10004196FC00360B019ADA8B02FADA8B033D0BEFFFA0001FFFC08145BC14EC00360B58230060350B57630660350B5745FC1F1000440A9
:408280003100F10005E04EC1DFB00001FFFC08145BC14EC00360B5826FE1F10005733100F10005D14EC1DFA10001FFFC08145BC14EC00360B58230200350B571307803505D
:4082C000B5746FE1F10005933100F10005BC4EC1DF8C0001FFFC0800301F7350E1414410BC204512B01FA02012003207B2204512B584A0020330B035A0201C004540725047
:40830000E141450000807250E1610340B033BC204512B81DA020490080037350E1619100EE08307F7250E141450000807350E141C01B9101EE08307F7250E16145000080F4
:408340007350E161C0119102EE0730DF7250E14130207350E141C0089103EE0630BF7250E14130407350E1410001FFFC08000330B0317030B019180080E00370B01F034180
:40838000B02F81010340B01BAE017030B019180080E00370B0230341B02F81020340B01BAE017030B019180080E00370B0270341B02F81030340B01BAE017030B019180005
:4083C00080E00370B02B0340B02F80010341B01BAE100371B02F0001FFFC0800ADA9B01BE3090330B0317030B019180080E00370B01FC002ADA8B01F30017570B01BE30D0D
:408400000341B02F81010340B01BAE017030B019180080E00370B023C002ADA8B02330027570B01BE30D0341B02F81020340B01BAE017030B019180080E00370B027C002A7
:40844000ADA8B02730037570B01BE30D0341B02F81030340B01BAE017030B019180080E00370B02BC002ADA8B02B0001FFFC08003101F100000C3102F1000036F10001A653
:40848000F1FFFDBEFFFAF10001AE0001FFFC0800450000E70350E0A030180350E0A09102EE0930610350E0A04520011940000370B03FC009450000A00350E0A04520005411
:4084C0003A800370B03F0001FFFC08000340B03F0001FFFC080004FFFFFAF1FFFE5FF1FFFDAF06FF0001FFFD080405C05BC15FC00370B0430310E30730390350E307ADA4D9
:40850000E30030047570B043EE14F1FFFFDE45010080AF104408F1000691440845293B83126FF10004444408F10004670360E302C02B30017570B043EE14F1FFFFC6450111
:408540000080AF104408F1000679440845293A83126FF100042C4408F100044F0360E302C013F1FFFFB245010080AF104408F1000665440845293B03126FF100041844089C
:40858000F100043B0360E30230207360E032450000807350E30707030001FFFC080030017570B043EE01C00630027570B043EE01C00130040001FFFC080030017570B043D5
:4085C000EE0445203A83126FC00B30027570B043EE0445203B03126FC00345203B83126F0001FFFC080504FF0310E20053F0300D7D0EBFFFE604300A7D0EBFFFEE07300A2E
:4086000053F0310DD065310AD063C0026BF1D060450002007570B44BE9120340B4537040B44B45010200AF105BB16FD04511B247A0106BF10E100340B44BADAAB44B06FF41
:408640000001FFFD080004C0ADA9B447E6140330B4514511B047A0101C000350E2000340B44F800145010200AF100371B44F0340B447ADABB44706030001FFFD0800451126
:40868000B247320045030200F10006594511B047320045030200F100065230CF7250E10430307350E10530060360E206450000C00350E202ADA0E20330187350E03230E711
:4086C0007250E0337250E10E7250E10F0001FFFC080553F1300A7D0EBFFFEE04310DDFF89000EEFC450002007570B447E91FFFFB0340B44F7040B44745010200AF105BB1C4
:408700006FD04511B047A0106BF10E100340B447ADAAB44730047650E201E60630087650E031EE027350E031FFFAC0023001C00130000001FFFC0801ADA9B44BE617FFFB29
:408740000330B4554511B247A0101C0053F00340B453800145010200AF100371B4530340B44BADABB44BFFFA6BF0C00130000001FFFC0800AA1F02024CA057E048E1BDFE5C
:408780006C826FE3F100065348E1BDFED0020001FFFC080857E16FE057C0C0096FC0AC10E613450002007D0EFFF8E104C00DADCEBFF8CFF46FC01C01DF8B9000EEFBADEEE8
:4087C0007FFCADEEBFF8CFEA0001FFFC0800F1FFFCCCF1FFFF534511B45745020138F10005540001FFFC0800AA1F0105098FB457098F013BF1FFFFBD8F04ADCEBFFBF1FF1C
:40880000FF9A53F0ADDE3FFFE6FA300A7D0EBFFFEE126FD048E1BEFBA010AC0048E1BEFBD028ADCEBFFB098FB457098F013EF1FFFFA08F04C0085FB048E1BEFBA0106BF143
:408840000E10ADEEBFFB450001007D0EFFFBE1D7098F0141F1FFFF8D8F02ADCEBFFB098FB457098F0174F1FFFF848F04CFC80001FFFC080457E16FE057C06FC01801F100BA
:40888000038C9000E603ADEE7FFCCFF76FE07D0EDFFCE6646FC0AC10EE166FE145020177F10002769000E65A6FE14502017CF100026F9000EE02D078C051098F017EF1FF48
:4088C000FF588F02C04B6FC0AC006FE1450201C7F100025E9000E6426FE1450201CCF10002579000EE05ADEE7FFC6FC1D039C0366FE1450201D4F100024B9000E62F6FE12D
:40890000450201D8F10002449000E6286FE1450201DCF100023D9000E6216FE1450201E0F10002369000E61A6FE1450201E7F100022F9000E6136FE1450201ECF10002280D
:408940009000E60C6FE1450201F2F10002219000E605098F01F8F1FFFF0C8F020001FFFC080457E16FE018009022E606098F0241F1FFFEFF8F02C016ADEE7FFE6FE132220F
:40898000F100031A57C06FC018009022E606098F0265F1FFFEEE8F02C0056FC0AC006FE1F1FFFC230001FFFC0800098F0289F1FFFEE08F02098F02A0F1FFFEDB8F02098F90
:4089C00002AFF1FFFED68F02098F02D6F1FFFED18F02098F02E8F1FFFECC8F02098F0305F1FFFEC78F02098F031AF1FFFEC28F02098F0339F1FFFEBD8F02098F034FF1FF1E
:408A0000FEB88F02098F037FF1FFFEB38F02098F0396F1FFFEAE8F02098F03BDF1FFFEA98F02098F03C9F1FFFEA48F02098F03F3F1FFFE9F8F02098F0400F1FFFE9A8F02DD
:408A4000098F042BF1FFFE958F02098F046BF1FFFE908F02098F0486F1FFFE8B8F02098F048CF1FFFE868F02098F04B4F1FFFE818F02098F04B7F1FFFE7C8F020001FFFC12
:408A800008004310E63B4810BFFA0332B83FC00D1E21441344344445A512E7064306A526EB0E4306A516E70B44124301A521E3F01E214413443444454306A516EFE94906FD
:408AC000C004A0064366A556EE07484500027850E0021E330F30C0010F104921C004A02143114303A531EE07480100027812E0021E010F12C0010F020362B83F0001FFFC55
:408B0000080005F844104518B563ADA1B576E90331060351B576ADA1B575E90831017351B5710311B57545510351B5750319B576890144014512B557F1000757031CB57465
:408B400040C09066EE050310B5589000E201A0099906E2064511B5573207F10003A0C0054511B5574492F100039A031BB557AA6B0001E602302DC00D0311B571AA610002F6
:408B8000E602302BC006AA610004E6023020C0013000031AB571AA6A0040E6030350B581C0039000E6011508AA6B0002E60FAA6A0020E6064481450204DBF1000366C05A89
:408BC0004481450204DFF1000360C054AA6B0004E60FAA6A0020E6064481450204E3F1000354C0484481450204E7F100034EC04240C09065EE0444814492D092440840C042
:408C00009066EE0644810312B5584493D0384408AA6A0080E60FADA0B57DC00188FF4880BFFF49813FFF9130E6F91801912EEE02ADA0B57C49803FFF902EEE0A0300B57C83
:408C40007000B57DEE0530087650B571EE0188FF0300B5749065EE0D30207650B571E6023045C0013065448144020313B558D0734408AC08F1000213071F0001FFFC080019
:408C800030004224ED0D0951003083FFC0094514B559A0041C4484301541800183FF82FF4224940001149400EE02900AE7F00361B57E9400EE07442484010354B57B82013B
:408CC000A12332FF0951002E422494FFE91B4224455484FF4235A554E9094424840145540354B57C82014552A123C00C0353B57C3300C0084512B559A0021C2282301521AF
:408D0000800183FF4232920001229200EE02900AE7F19200EE020353B57D44100001FFFC08000310B55980301501300182FF0951002EC0074513B559A0031C338330153178
:408D40008001442382FF42339300E202900AE7F244100001FFFC080015214230ED040951002D4553C0020951002B4230320AAF20803015014232300AAF0280301501441018
:408D80000001FFFC08004311F10000650001FFFC0800C00281018201AC11E6041C207D01A000E6F818101821A1100001FFFC05F0F1000255EE023000C005A0A08082B089B0
:408DC000F1000003070FFFFC80FFBC18EBFDEF0DBA98BD70ED04E70945207FFFFFFFA380AAAB80000000A3B0FFFC3000FFFC08004111F10002AE0001FFFC05C04480BC1039
:408E000039080007B690BA10AAB080000000AA19009EE70445207FFFFFFFC00645599920E7023000C004B5909800ED0145500703FFFC08004410C0018001AC10EEFDA1107E
:408E400043000001FFFC08000330B5820E10ADA6B5820001FFFC080044124511B563920001159500E60344204550C00144204402920001B7ADA1B576E90330010350B576E9
:408E8000ADA1B575E90830017350B5710310B57545500350B57534410300B5749064E60C9069E60A906FE60A9070E60A9075E6049078E6069058E609330AC0083300C006D9
:408EC00030207650B571EE013461331044304426AE069009E305440686F6A0461561C002803015014430AE02EEF1C002095100300312B57644104514B563A1404024A54034
:408F0000E1F50310B571AA600008E6149700E6129310EE050951005809510030C00B9374EE050951007809510030C0049308EE02095100309500E602342DC00BAA60000206
:408F4000E602342BC006AA600004E6023420C00134004220E60330BF7250B57130407650B571E6030354B581C0039400E6011541AC014511B563F100014CF1000090000142
:408F8000FFFC080044143000C0031D2515548001A530E7FB44100001FFFC08009100E102917FE2023000C00645000070A0101800AA20000F0001FFFC0800C0061810A520BD
:408FC000EE024410C0098101AC11EEF81810A520EE024410C00130000001FFFC080005804418F1000044440191FFEE023000C0074A8100028106F1FFFD430330B83F070191
:409000000001FFFC0800058044188806A518EF023000C02A0333B83F0331B83F1E1148120002A528EB13A1829207EB031E100F03C0087981E0024910C004A01044014A81DC
:4090400000020363B83F48108006C00E43127532B83FEE074481DFC244014312EE023000C00344131E11CFDB07010001FFFC0332B8454420A012E70448F1BFE0A512E7023B
:4090800030FFC00C0341E00CE0054311A501E602A521E3F60372E00C0362B845FFFC080005F838000319B571AA690001EE03ADA1B575E9023001C0013000440C4511B5639A
:4090C000F1FFFEB77000B57B7000B57C0301B57D2A01ADA1B581E6090311B581F1000129ADA2B580ADA0B58138010310B575E0163B209C00EE13AA690040E6013B304401FC
:40910000F100007E218A4408A1187058B580C00444B1F100010E88FF9800EAFAADA5B57EEE094511B563F1FFFE844511B563A0100360B57E4519B563C0031D91F10000F976
:40914000AC19E6037569B57EEBF80308B57BC0043130F10000EE88FF9800EAFA0318B57CE805ADA1B57DEE02AC19E61A1D91F10000E04088C0043130F10000DB88FF980046
:40918000EAFAC0031D91F10000D4AC19EEFB0308B57DC0043130F10000CC88FF9800EAFA705AB5809C00E60F0311B575F10000284408A1A87058B580C00444B1F10000B9E9
:4091C00088FF9800EAFAADA0B5710310B5710350B5760310B5760350B5750310B5750350B574ADA0B57D0310B57D0350B57C0310B57C0350B57BADA4B57E071F0001FFFC19
:4092000008009100E90344104550C00144100001FFFC080005C0441844894491F1FFFE09210881FFC00618121C930E3181FF152980FE9001EBF807030001FFFC0590448B4C
:409240009800ED054558C00305903B0098003000E6044500009EF1FFFDB80709FFFC448BA49BBC1830080007B608BA18AAB880000000BC193A080007B6A9BA19AAB9800029
:4092800000009000E6019A00FFFC0800441344101D241541AC10EEFB44300001FFFC080042209000E344330035003009C01848158002A00518569605EA059300E605185641
:4092C0009605EE023501C001350048168002A0061866A36348168002A006AC0680FF4026A560EFE59500E61048128002230225021C3282010E25C0082204AC0280FF2204BF
:4093000023041C2282010E239000E3084814800248128002A0021822920AE6EE49100002900AEE05ADE1000130014B0100020001FFFC08000340B841F2100001FFFC080057
:409340004410C002152083FF9300EEFC44100001FFFC080044124511B563920001E6ADA1B576E90330010350B576ADA1B575E90830017350B5710310B57545500350B57528
:4093800034410300B5749058E6179064E60C9069E60A906FE60A9070E60A9075E6049078E6069050E609330AC0083308C00630207650B571EE013461331044304425AE052E
:4093C0009009E305440585F6A0451551C002803015014430AE02EEF1C002095100300310B57644124515B563A1524005A552E1F532087652B571E60D9600E60B9310EE05C3
:409400008417154109510030C0049308EE02095100304200E60330BF7250B571AC014511B563F1FFFEF6F1FFFE3A0001FFFC0800F10000020001FFFC080205F0442A57E315
:40944000ADA0B5800361B582C0BF44A08A011C01F1FFFF6FADA2B580AC1A01609000EE0318A19125EEF29000F22E00AE44A844814512B5704FE3F100016E440A0319B5703F
:4094800040909001E609C00E448088011C01F1FFFF50ADA2B5808801438043A1A510E7F430FFC09D40909002EE070311B573F1FFFF40ADA2B580C088031BB57440B800291F
:4094C0008122F1000277F2000310B5724001916CE6034001914CEE093004780EDFFE6FE048013FFCF1FFFCB7C06F3004780EDFFE6FE048013FFCF1FFFCAEC0660310B57257
:409500004001916CE6034001914CEE093004780EDFFE6FE048013FFCF1FFFF1BC0553004780EDFFE6FE048013FFCF1FFFF12C04C3004780EDFFE6FE048083FFC40B0906797
:40954000EE044481F1000067C03F4481F1FFFAD8C03B3004780EDFFE6FE04900BFFF0350B563ADA0B564F1FFFD9AC02E3002780EDFFE6FE04901FFFEF100008BC02530026A
:40958000780EDFFE6FE04901FFFEF1FFFEE2C01C3002780EDFFE6FE04908FFFE0310B5724001916CE6034001914CEE040301B5800B18C00A40009068EE040300B5800F08C4
:4095C000C0030300B5800B08AC1AF22EFF45ADA5B582E6030330B582AC000300B580070F0001FFFC000F45006A47006A58003663008C64000265006A66006A67006A690036
:15960000026E00CA6F00367000B87300A67500367800360102D9
:409616000800058044184512B557F10001E3ADA1B576E902ADA0B576ADA1B575E90830017350B5710310B57545500350B57530087650B571EE04450000807350B571ADA133
:40965600B576EE0330010350B5760310B55890FCE1037550B576EA06ADA3B57631650351B574C00680017150B57630660350B5744481F1FFFA3A07010001FFFC080005FCD0
:4096960044123800442B3C00031AB575E022031DB571AA6D0001EE0242A0ED023001C0013000440C9C00EE15F1FFFBB84409AA6D0010E6050310B576A509E2014409A19A89
:4096D60044A9C0053120F1FFFE29880189FF9900EAF930107650B571EE023AFFC002031AB5763900C00644B08B011C01F1FFFE1689014390A5A0EF02AC1BEEF54190A008F8
:409716009C00E60F0311B575F1FFFD6F0350B575C0043120F1FFFE0288010310B575A580EBF87058B580ADA0B5710310B5710350B5760310B5760350B575073F0001FFFC74
:40975600080E05FC441D442B5B7744375BB73A00ADCEBFF35F77ADCB0001ADCB0005ADCB0006ADCB0002ADCB000419DC44C8002981A0F1000114F2003100C00D3101C00BA8
:409796003103C0093106C0073102C0053104C0033105C001310744A2BC3A450000F0A0A0A0101C0A9A03E6349A04E6509A05E6539A06E6689A07E6699A08F22600A29AFE1D
:4097D600E6099AFFE6039A02EED0C009AC0B48D0BFFFC09C09CB000148D0BFFFC0979C23E6139C2BE6099C2DE6039C20EEBEC00830017B0BA001CFB930027B0BA001CFB5C7
:4098160030047B0BA001CFB130087B0BA001CFAD9C2AEE0B5B775FB7AB0700041E705F774900BFFF4B0B0005CFA0A5A2E6059C30EE0330407B0BA00149B08005310AB110CA
:4098560044C181D0A0104B0B0005CF8F5B7737015B375F77CF8A9C2AEE0B5B775FB7AB0700041E705F774900BFFF4B0B0006CF7D49B08006310AB11044C181D0A0104B0B01
:409896000006CF734BCB0002CF7044C1F10000944B0B000444C1F10000739000E60330207B0BA001ADDB0005E90830017B0BA00149B0800545504B0B00055B77ADDEBFF363
:4098D6005F7701609000EE03ADDB0006E9109C65E6089C45E6069C67E6049C47E6029C66EE0431064B1B0006C002ADCB00069C73F22EFF3B9000F22EFF3830107B0BA00111
:40991600CF3409CB00024BCB000344D0073F0001FFFC002320000223000225001A2A000E2B00022D00022E000A30000631000632000633000634000635000636000637008E
:3F995600063800063900064500164700164C00125800166300166400166500166600166700166800126900166C00126E00166F0016700016730016750016780016001E9E
:4099960008009100E102917FE2023000C00645000070A0101800AA2000080001FFFC05F01B9AE0051D9BA58BE6028902FDBA1A9078F08010070FFFFC080005804418F1FFB3
:4099D600FFDF9000E60344808020C001448007010001FFFC080405E0441A4428390044813200330CF1FFFCA05BCAADDEBFFCE64D6BC0AA600080E60209C800015FC1BC115D
:409A1600BB815FD0BC10BA90AA5100FFEE0A5FD2BC12BA92EE03AD980302C037AD980304C0349100E604AAB00080000081FFBC508182C00A4402BBB29209E3043205AE20F8
:409A56008901C001BC1081FF9100EAF4C00A4402BBC29202EF043205B22089FFC001BA1081019100E1F44B9800013100C00C4402BBC248838002A0130E23AAA00FFFFFFF87
:409A9600320AB2208101910AE7F207070001FFFC00000000000000040404040400040A0A0000000000000A1F0A1F0A00040F140E051E04181902040813030E0A0C081513F5
:409AD6000E0404000000000001020404040201100804040408100004151F1504000004041F040400000000000002040000000E00000000000000000606000102040810002D
:409B16000E11131519110E040C040404041F0E11010608101F0E11010601110E1011111F0101011F10101E01110E0E11101E11110E1F0101020404040E11110E11110E0EB5
:409B560011110F01010100040400040400000004040004080102040804020100001F001F0000100804020408100E1102040400040E11151517100F040A11111F11111E119D
:409B9600111E11111F0E11101010110E1E11111111111F1F10101C10101F1F10101C1010100E11101711110E1111111F1111111F04040404041F1F02020202120C11121431
:409BD600181412111010101010101F111B1511111111111119151311110E11111111110E1E11111E1010100E11111115120D1E11111E1412110E11100E01110E1F040404E6
:409C16000404041111111111110E11111111110A0411111111151B1111110A040A111111110A040404041F11020408111F0E08080808080E001008040201000E0202020227
:409C5600020E040A11000000000000000000001F080400000000000000000C12120D0010101E11111E0000000F10100F0001010F11110F00000E111E100F0609081E080898
:409C960008000E11110F010E0010101E111111000004000404040002020202120C0011121C14121100080808080808000000111B1511000000161911110000000E11110E0A
:409CD600000E09090E0808000E110E0202010000080E0808080000070806010E0000040E0404040000001111110E00000011110A0400000011151B110000110A040A110071
:409D160000110A04040400001F0204081F06080810080806040404040404040C02020102020C000A15000000000000000100000002000000040000000800000010000000E3
:139D56002000000040B83900000000B83900008E46B847E5
:00000001FF
