:40000000FFFFFFFF00000610FFFFFFFFFFFFFFFFFFFFFFFFFFFFFFFF000084EC000085FC00008658FFFFFFFFFFFFFFFFFFFFFFFFFFFFFFFFFFFFFFFFFFFFFFFFFFFFFFFF0B
:40004000FFFFFFFFFFFFFFFFFFFFFFFFFFFFFFFFFFFFFFFFFFFFFFFFFFFFFFFFFFFFFFFFFFFFFFFFFFFFFFFFFFFFFFFFFFFFFFFF808080808080808080C0C0C0C0C0808070
:4000800080808080808080808080808080808080600202020202020202020202020202020101010101010101010102020202020202181818181818080808080808080808D2
:4000C000080808080808080808080802020202020214141414141404040404040404040404040404040404040404040202020280FEFEFEFEFE01FEFE02030604070803FE3A
:400100000203060407FE03FEFE03060407FE03FEFE05FEFE07FE05FEFE0506FE07FE05FEFEFEFEFE07FEFEFEFFFFFFFFFFFFFFFFFFFFFFFFFFFFFFFF3E200025730025730C
:40014000000A2D2D4572726F722D2D2C20636F6D6D616E6420697320746F6F206C6F6E672E20436F6D6D616E642069676E6F7265642E0A00257300696E666F003F006563B6
:40018000686F00646973706C617900736574006865780073776974636800706F72740074696D6572007561727430002D2D436F6D6D616E643A25732C206E6F7420666F758B
:4001C0006E642E20456E74657220223F2220746F207365652061206C697374206F6620617661696C61626C6520636F6D6D616E64732E0A000A417661696C61626C65204333
:400200006F6D6D616E64733A0A0A006563686F205B2274657874225D0A00202D4563686F732074657874206261636B20746F207468652073657269616C20706F72742E0A01
:4002400000646973706C6179205B2274657874225D0A00202D446973706C61792074657874206F6E20746865204C4544732E0A007365742070726F6D7074205B227465789B
:4002800074225D0A00202D5365742074686520434C492070726F6D707420746F20746578742E0A00686578205B646563696D616C206E756D6265725D0A00202D4469737011
:4002C0006C6179206120646563696D616C206E756D62657220696E20686578206F6E20746865204C4544732E0A00737769746368205B302D325D205B2274657874225D0A61
:4003000000202D41737369676E73207468652074657874206D6163726F20746F206120627574746F6E2E0A00706F7274205B412D4B5D0A00202D446973706C617920746829
:40034000652063757272656E74207374617465206F662074686520706F72742E0A0074696D6572205B302D325D0A00202D446973706C6179207468652063757272656E7408
:40038000207374617465206F66207468652074696D65722E0A007561727430205B7370656564205B62617564726174655D5D205B706172697479205B6576656E7C6F646448
:4003C0007C6E6F6E655D5D205B62697473205B377C385D5D0A00202D536574207468652075617274302073657474696E67732E0A00696E666F0A00202D446973706C617938
:400400007320766172696F75732073797374656D20696E666F726D6174696F6E2E0A003F0A00202D446973706C6179732061206D656E75206F6620434C4920636F6D6D610E
:400440006E64732E0A00496E636F727265637420666F726D61742C206563686F205B2274657874225D0A0025730A00496E636F727265637420666F726D61742C2064697357
:40048000706C6179205B2274657874225D0A003120496E636F727265637420666F726D61742C20686578205B646563696D616C206E756D6265725D0A003120496E636F72C1
:4004C0007265637420666F726D61742C207365742070726F6D7074205B2274657874225D0A0070726F6D7074003220496E636F727265637420666F726D61742C2073657482
:400500002070726F6D7074205B2274657874225D0A003320496E636F727265637420666F726D61742C207365742070726F6D7074205B2274657874225D0A003120496E63B9
:400540006F727265637420666F726D61742C20737769746368205B6E5D205B2274657874225D0A003220496E636F727265637420666F726D61742C20737769746368205B37
:400580006E5D205B2274657874225D0A003320496E636F727265637420666F726D61742C20737769746368205B6E5D205B2274657874225D0A005561727430204261756469
:4005C00020526174653A2025750A0050617274204E756D6265723A2025730A00436F6D70696C6520446174653A2025730A436F6D70696C652054696D653A2025730A004915
:0F0600004E4600696E66004E414E006E616E0000
:40061000451FC0004510B8660370E00C4510B0004501058FC00209500000FDD1452000000000452100000001C00209500000FDD145200000A0E44511B58E450202D9C002D1
:2C06500019031531FDD2452000000000452100000000452200000001C00219031531FDD23E0031003200F1003F03CFFF85
:408000000800450000C07350E132450000D07350E152450000C80350B0150350B016ADA4B0170350B014ADA8B00430280370B008ADA8B00C450001F40370B0100001FFFCDF
:408040000800F10002B77070B0040340B0107570B00CE107ADA8B00C450000C80350B014C007ADA9B00CE204F10002A47070B00C0340B0087570B004E12EADA8B004031048
:40808000B0150350B0160311E150AA2100C00310E130AA2000084402A3100350B0150310B0167550B015EE17450000C87550B015E608ADA5B017EE0F30010360B017D00DD0
:4080C000C00A30017560B017EE06F10002737070B00CADA4B0170001FFFC0800450000C07550B015EE15ADA9B00CE60A7550B014EE07ADA8B00C450000C80350B014C03C94
:40810000450000C00350B0143100F10006BCC034450000887550B015EE15ADA9B00CE60A7550B014EE07ADA8B00C450000C80350B014C022450000880350B0143101F10053
:4081400006A2C01A30487550B015EE14ADA9B00CE60A7550B014EE07ADA8B00C450000C80350B014C00930480350B0143102F100068AC002ADA4B0170001FFFC0800ADA08D
:40818000E142ADA0E162ADA8B037450001900370B03BADA4B019ADA8B01BADA8B01FADA8B023ADA8B027ADA8B02B0001FFFC0800F10002007070B03730047570B01BE3082D
:4081C0000340B03B7570B037E103ADA8B037D0D73100D08A3101D0883102D0863103D0840340B03380013107AE100371B0330001FFFC08000371B03B0001FFFC080457E101
:408200006FE1F10008460370B01B0341B01B8102F10009EA57C0ADDE7FFCEE03ADA8B01BC0286FC16FE20343B01BF10008DA30047570B01BE3080330B01D78E07FFC09C015
:408240000020ADAAB01B0330B01D78E07FFCAC00FFFBADA5B019E6040331B019F10006406FC00360B019ADA8B02FADA8B033D0BEFFFA0001FFFC08145BC14EC00360B58CD6
:4082800030060350B58030660350B57E5FC1F10006673100F10008074EC1DFB00001FFFC08145BC14EC00360B58C6FE1F100079A3100F10007F84EC1DFA10001FFFC081407
:4082C0005BC14EC00360B58C30200350B57B30780350B57E6FE1F10007BA3100F10007E34EC1DF8C0001FFFC0800301F7350E1414410BC204512B01FA02012003207B220BC
:408300004512B58EA0020330B035A0201C0045407250E141450000807250E1610340B033BC204512B827A020490080037350E1619100EE08307F7250E14145000080735070
:40834000E141C01B9101EE08307F7250E161450000807350E161C0119102EE0730DF7250E14130207350E141C0089103EE0630BF7250E14130407350E1410001FFFC0800FE
:408380000330B0317030B019180080E00370B01F0341B02F81010340B01BAE017030B019180080E00370B0230341B02F81020340B01BAE017030B019180080E00370B0276F
:4083C0000341B02F81030340B01BAE017030B019180080E00370B02B0340B02F80010341B01BAE100371B02F0001FFFC0800ADA9B01BE3090330B0317030B019180080E021
:408400000370B01FC002ADA8B01F30017570B01BE30D0341B02F81010340B01BAE017030B019180080E00370B023C002ADA8B02330027570B01BE30D0341B02F8102034015
:40844000B01BAE017030B019180080E00370B027C002ADA8B02730037570B01BE30D0341B02F81030340B01BAE017030B019180080E00370B02BC002ADA8B02B0001FFFC15
:4084800008003101F100000C3102F1000039F10001CBF1FFFDB5FFFAF10001D50001FFFC0800450000E70350E0A030180350E0A09102EE0930610350E0A04520011940003E
:4084C0000370B03FC009450000A00350E0A0452000543A800370B03F0001FFFC08000340B03F0001FFFC08000001FFFC080004FFFFFAF1FFFE5CF1FFFDA306FF0001FFFDAE
:40850000080405C05BC15FC00370B0430310E30730390350E307ADA4E30030047570B043EE14F1FFFFDB45010080AF104408F1000995440845293B83126FF1000668440816
:40854000F100068B0360E302C02B30017570B043EE14F1FFFFC345010080AF104408F100097D440845293A83126FF10006504408F10006730360E302C013F1FFFFAF45014D
:408580000080AF104408F1000969440845293B03126FF100063C4408F100065F0360E30230207360E032450000807350E30707030001FFFC080030017570B043EE01C006C4
:4085C00030027570B043EE01C00130040001FFFC080030017570B043EE0445203A83126FC00B30027570B043EE0445203B03126FC00345203B83126F0001FFFC080504FF8D
:408600000310E20053F0300D7D0EBFFFE604300A7D0EBFFFEE07300A53F0310DD067310AD065C0026BF1D062450002007570B44BE9100340B4537040B44B45010200AF1044
:408640005BB16FD04511B247A0106BF10E10ADAAB44B06FF0001FFFD080004C0ADA9B447E6140330B4514511B047A0101C000350E2000340B44F800145010200AF100371FF
:40868000B44F0340B447ADABB44706030001FFFD08004511B247320045030200F100096E4511B047320045030200F100096730CF7250E10430307350E10530060360E2068B
:4086C0004500E1000370B457450000C00350E202ADA0E20330187350E03230E77250E0337250E10E7250E10F0001FFFC080553F1300A7D0EBFFFEE04310DDFF89000EEFCAB
:40870000450002007570B447E91FFFFB0340B44F7040B44745010200AF105BB16FD04511B047A0106BF10E100340B447ADAAB44730047650E201E60630087650E031EE02FE
:408740007350E031FFFAC0023001C00130000001FFFC0801ADA9B44BE617FFFB0330B4554511B247A0101C0053F00340B453800145010200AF100371B4530340B44BADAB76
:40878000B44BFFFA6BF0C00130000001FFFC0800AA1F02024CA057E048E1BDFE6C826FE3F100096448E1BDFED0020001FFFC080857E16FE057C0C0096FC0AC10E6134500AD
:4087C00002007D0EFFF8E104C00DADCEBFF8CFF46FC01C01DF8B9000EEFBADEE7FFCADEEBFF8CFEA0001FFFC08000340B4570001FFFC080553F1FFFB450002007570B44B3A
:40880000E9100340B4537040B44B45010200AF105BB16FD04511B247A0106BF10E10ADAAB44BFFFA0001FFFC0800F1FFFCA7F1FFFF2FF10002B44511B45B45020138F100FA
:4088400008340001FFFC0800AA1F0105098FB45B098F013BF1FFFF9B8F04ADCEBFFBF1FFFF7853F0ADDE3FFFE6FA300A7D0EBFFFEE1CADDEBFFBE6086FD048E1BEFBA01038
:40888000AC0048E1BEFBD0D4ADCEBFFB48E1BEFB320045030100F1000871098FB45B098F013EF1FFFF748F04C02163F1F10006589000EE0563F1F10006E49000E6095FB052
:4088C00048E1BEFBA0106BF10E10ADEEBFFBC00E307F7D0EBFFFEEC3ADDEBFFBE607ADFEBFFB6FD048E1BEFBA010AC00450001007D0EFFFBE1B4098F0141F1FFFF488F028A
:40890000ADCEBFFB48E1BEFB320045030100F1000835098FB45B098F0174F1FFFF388F04CF9E0001FFFC080457E16FE01E0057C06FC018009022E6023001C012ADEE7FFCDE
:408940006FC13222F100062A57C0ADDE7FFCEE023001C0066FC0AC006FE06FC10F1030000001FFFC080457E16FE01E0057C06FC01801F100074F9000E603ADEE7FFCCFF7FD
:408980006FC0AC10EE023001C0066FC0AC006FE06FC10F1030000001FFFC080457E16FE01E0057C06FC01801F10005E99000E603ADEE7FFCCFF76FC0AC006FE06FC17D1015
:4089C000C000EE023001C0046FE06FC10F1030000001FFFC080457E16FE01E0057C06FC01801F100064E9000E603ADEE7FFCCFF76FE06FC10F100001FFFC080657E16FE12E
:408A0000F100044780015BA0450001007D0EFFFAE7015BA04511B45B6FE25FA3F10004E15FA080FF4511B45BA010AC000001FFFC080457E14FE1DFCE6FE057C06FC0180139
:408A4000F100058E9000E6076FC018009009E603ADEE7FFCCFF36FE07D0EDFFCE66D6FC0AC00ADEE7FFC6FE145020177F10003C09000EE02D0CFC0606FE14502017CF10054
:408A800003B79000EE02D05AC0576FE14502017EF10003AE9000EE036FC1D0C1C04D6FE145020183F10003A49000EE036FC1D0D2C0436FE14502018BF100039A9000EE03F9
:408AC0006FC1D0F8C0396FE14502018FF10003909000EE036FC1D0D5C02F6FE145020193F10003869000EE036FC1D117C0256FE14502019AF100037C9000EE036FC1D14608
:408B0000C01B6FE14502019FF10003729000EE036FC1D13FC0116FE1450201A5F10003689000EE036FC1D138C0076FE0160F098F01ABF1FFFE2C8F040001FFFC0800098F10
:408B400001F4F1FFFE248F02098F020BF1FFFE1F8F02098F021AF1FFFE1A8F02098F0241F1FFFE158F02098F0253F1FFFE108F02098F0270F1FFFE0B8F02098F0285F1FF3F
:408B8000FE068F02098F02A4F1FFFE018F02098F02BAF1FFFDFC8F02098F02EAF1FFFDF78F02098F0301F1FFFDF28F02098F0328F1FFFDED8F02098F0334F1FFFDE88F022C
:408BC000098F035EF1FFFDE38F02098F036BF1FFFDDE8F02098F0396F1FFFDD98F02098F03D6F1FFFDD48F02098F03F1F1FFFDCF8F02098F03F7F1FFFDCA8F02098F041F00
:408C0000F1FFFDC58F02098F0422F1FFFDC08F020001FFFC0800F10000C90001FFFC080457E14FE1DED76FE057C04FE1DE7C9000E606098F0446F1FFFDAA8F02C009ADEE38
:408C40007FFC6FC0160F098F0467F1FFFDA08F040001FFFC080457E14FE1DEBC6FE057C04FE1DE619000E606098F046BF1FFFD8F8F02C005ADEE7FFC6FC1F1FFFABF0001DE
:408C8000FFFC080857E14FE1DEA56FE057C04FE1DE849000E606098F048FF1FFFD788F02C0076FC1F10003A95B805F81F1FFFB070001FFFC080457E14FE1DE8C6FE057C0A8
:408CC0004FE1DE509000E606098F04B9F1FFFD5F8F02C0216FC1450204E2F10002899000EE15ADEE7FFE4FE1DE756FE057C04FE1DE1A9000E606098F04E9F1FFFD488F022B
:408D0000C00AADEE7FFC6FC1DE78C005098F0512F1FFFD3D8F020001FFFC080857E14FE1DE596FE057C04FE1DE389000E606098F053BF1FFFD2C8F02C0276FC1F100035DE1
:408D40005B80ADDEBFF8E10430037D0EFFF8E106098F0564F1FFFD1B8F02C016ADEE7FFE4FE1DE386FE057C04FE1DDDD9000E606098F058DF1FFFD0B8F02C006ADEE7FFC2C
:408D80005F816FC2F100002D0001FFFC08000001FFFC08000001FFFC08000001FFFC0800450000807350E0610001FFFC0800F1FFFD1B100F098F05B6F1FFFCE98F06098F2B
:408DC0000040098F05CBF1FFFCE28F04098FB851098FB85A098F05DCF1FFFCD98F060001FFFC080A5BC157A2ADDEBFFCE14A30037D0EFFFCE9465FC0BC104511B55BA010CF
:408E0000AC50E6065FC0BC10A0101E01F10000686FA1F100023E80025B60450000807D0EFFF6E3015B605F61F10003DE5FC1BC114512B55BA0210F015FC0BC104511B55BCD
:408E4000A010AC50E61E5F6383FE5FC0BC10A0101E016FA2F10002C55FC0BC104511B55BA0015F6080FE7810600009C0000A5FC0BC104511B55BA0015F6080FF781060007A
:408E8000AC000001FFFC080E5BC1ADDEBFFCE12630037D0EFFFCE101C0215FC0BC104511B55BA0101E0057A06FA1F10001F25B20C0055F207D0EFFF6E104C010ADCEBFF6E1
:408EC000CFF86FA01C01F1FFFC116FA01C01F1FFFC90ADEE7FFAADEEBFF6CFEB0001FFFC08004310E63B4810BFFA0332B849C00D1E21441344344445A512E7064306A526E1
:408F0000EB0E4306A516E70B44124301A521E3F01E214413443444454306A516EFE94906C004A0064366A556EE07484500027850E0021E330F30C0010F104921C004A021B2
:408F400043114303A531EE07480100027812E0021E010F12C0010F020362B8490001FFFC080005F844104518B56DADA1B580E90331060351B580ADA1B57FE90831017351F1
:408F8000B57B0311B57F45510351B57F0319B580890144014512B561F1000846031CB57E40C09066EE050310B5629000E201A0099906E2064511B5613207F100048FC00559
:408FC0004511B5614492F1000489031BB561AA6B0001E602302DC00D0311B57BAA610002E602302BC006AA610004E6023020C0013000031AB57BAA6A0040E6030350B58BA6
:40900000C0039000E6011508AA6B0002E60FAA6A0020E6064481450205FFF1000446C05A448145020603F1000440C054AA6B0004E60FAA6A0020E606448145020607F100B2
:409040000434C04844814502060BF100042EC04240C09065EE0444814492D092440840C09066EE0644810312B5624493D0384408AA6A0080E60FADA0B587C00188FF488016
:40908000BFFF49813FFF9130E6F91801912EEE02ADA0B58649803FFF902EEE0A0300B5867000B587EE0530087650B57BEE0188FF0300B57E9065EE0D30207650B57BE60268
:4090C0003045C0013065448144020313B562D0734408AC08F10002E4071F0001FFFC080030004224ED0D0951003083FFC0094514B563A0041C4484301541800183FF82FFC1
:409100004224940001149400EE02900AE7F00361B5889400EE07442484010354B5858201A12332FF0951002E422494FFE91B4224455484FF4235A554E9094424840145541C
:409140000354B58682014552A123C00C0353B5863300C0084512B563A0021C2282301521800183FF4232920001229200EE02900AE7F19200EE020353B58744100001FFFC6C
:4091800008000310B56380301501300182FF0951002EC0074513B563A0031C33833015318001442382FF42339300E202900AE7F244100001FFFC080015214230ED04095147
:4091C000002D4553C0020951002B4230320AAF20803015014232300AAF028030150144100001FFFC08004311F10000650001FFFC0800C00281018201AC11E6041C207D01CD
:40920000A000E6F818101821A1100001FFFC05F0F1000335EE023000C005A0A08082B089F1000003070FFFFC80FFBC18EBFDEF0DBA98BD70ED04E70945207FFFFFFFA38084
:40924000AAAB80000000A3B0FFFC3000FFFC08004111F100039D0001FFFC05C04480BC1039080007B690BA10AAB080000000AA19009EE70445207FFFFFFFC00645599920E8
:40928000E7023000C004B5909800ED0145500703FFFC08004410C0018001AC10EEFDA11043000001FFFC08000330B58C0E10ADA6B58C0001FFFC080044124511B56D9200A5
:4092C00001159500E60344204550C00144204402920001B7ADA1B580E90330010350B580ADA1B57FE90830017350B57B0310B57F45500350B57F34410300B57E9064E60C79
:409300009069E60A906FE60A9070E60A9075E6049078E6069058E609330AC0083300C00630207650B57BEE013461331044304426AE069009E305440686F6A0461561C002A9
:40934000803015014430AE02EEF1C002095100300312B58044104514B56DA1404024A540E1F50310B57BAA600008E6149700E6129310EE050951005809510030C00B93743D
:40938000EE050951007809510030C0049308EE02095100309500E602342DC00BAA600002E602342BC006AA600004E6023420C00134004220E60330BF7250B57B3040765022
:4093C000B57BE6030354B58BC0039400E6011541AC014511B56DF100022CF10001610001FFFC080044143000C0031D2515548001A530E7FB44100001FFFC08003200330A99
:40940000F100009B0001FFFC080030050370B0004410AA200002E60BAA210001E604452080000000C00545207FFFFFFFC00130FF0001FFFC080A05FC441A5B7044205BB05B
:40944000443D444C44DBC0018A0118A1F10001199000EEFA18A1912DEE04AA3C00018A01C00418A1912BEE018A019D00EE1118A19130EE0D48A1800149A200019278E6034C
:4094800018129258EE023B10C0033B08C0013B0A9D10EE0D18A19130EE0A48A1800149A200019278E60318129258EE018A02380044A08A011801F100004544099941E70259
:4094C00089C9C00189D0A5B9EF1031FF44B2AE21A581EF0344C1DF98C0284480B2B8A098A508EFE644C1DF90C0205B705FB043015F70E6148AFF9D00E602C00D8A0118A1F0
:409500009168E6FC18A19175E6F918A1916CE6F618A1914CE6F35B705FB00FA0AA2C0001E60344804550C0014480073F0001FFFC08003400DF7F0001FFFC08003402DF7A1B
:409540000001FFFC080005804418F10001B89000E603448080E0C001448007010001FFFC08009100E102917FE2023000C00645000070A0101800AA20000F0001FFFC080076
:409580009100E102917FE2023000C00645000070A0101800AA2000010001FFFC0800C0061810A520EE024410C0098101AC11EEF81810A520EE024410C00130000001FFFCFE
:4095C000080005804418F1000044440191FFEE023000C0074A8100028106F1FFFC810330B84907010001FFFC0800058044188806A518EF023000C02A0333B8490331B849ED
:409600001E1148120002A528EB13A1829207EB031E100F03C0087981E0024910C004A01044014A8100020363B84948108006C00E43127532B849EE074481DFC24401431262
:40964000EE023000C00344131E11CFDB07010001FFFC0332B84F4420A012E70448F1BFE0A512E70230FFC00C0341E00CE0054311A501E602A521E3F60372E00C0362B84FC0
:40968000FFFC08009100E102917FE2023000C00645000070A0101800AA2000400001FFFC080005F838000319B57BAA690001EE03ADA1B57FE9023001C0013000440C451103
:4096C000B56DF1FFFDE67000B5857000B5860301B5872A01ADA1B58BE6090311B58BF1000147ADA2B58AADA0B58B38010310B57FE0163B209C00EE13AA690040E6013B307D
:409700004401F100007E218A4408A1187058B58AC00444B1F100012C88FF9800EAFAADA5B588EE094511B56DF1FFFDB34511B56DA0100360B5884519B56DC0031D91F1009C
:409740000117AC19E6037569B588EBF80308B585C0043130F100010C88FF9800EAFA0318B586E805ADA1B587EE02AC19E61A1D91F10000FE4088C0043130F10000F988FF3D
:409780009800EAFAC0031D91F10000F2AC19EEFB0308B587C0043130F10000EA88FF9800EAFA705AB58A9C00E60F0311B57FF10000284408A1A87058B58AC00444B1F100A0
:4097C00000D788FF9800EAFAADA0B57B0310B57B0350B5800310B5800350B57F0310B57F0350B57EADA0B5870310B5870350B5860310B5860350B585ADA4B588071F0001B5
:40980000FFFC08009100E90344104550C00144100001FFFC08009100E102917FE2023000C00645000070A0101800AA20000C0001FFFC080005C0441844894491F1FFFD2918
:40984000210881FFC00618121C930E3181FF152980FE9001EBF807030001FFFC0590448B9800ED054558C00305903B0098003000E6044500009EF1FFFCD80709FFFC448B5A
:40988000A49BBC1830080007B608BA18AAB880000000BC193A080007B6A9BA19AAB9800000009000E6019A00FFFC0800441344101D241541AC10EEFB44300001FFFC08003E
:4098C0009100E102917FE2023000C00645000070A0101800AA2000040001FFFC080042209000E344330035003009C01848158002A00518569605EA059300E6051856960526
:40990000EE023501C001350048168002A0061866A36348168002A006AC0680FF4026A560EFE59500E61048128002230225021C3282010E25C0082204AC0280FF22042304EC
:409940001C2282010E239000E3084814800248128002A0021822920AE6EE49100002900AEE05ADE1000130014B0100020001FFFC08000340B84BF2100001FFFC08004410DA
:40998000C002152083FF9300EEFC44100001FFFC080044124511B56D920001E6ADA1B580E90330010350B580ADA1B57FE90830017350B57B0310B57F45500350B57F34417B
:4099C0000300B57E9058E6179064E60C9069E60A906FE60A9070E60A9075E6049078E6069050E609330AC0083308C00630207650B57BEE013461331044304425AE059009B0
:409A0000E305440585F6A0451551C002803015014430AE02EEF1C002095100300310B58044124515B56DA1524005A552E1F532087652B57BE60D9600E60B9310EE0584175C
:409A4000154109510030C0049308EE02095100304200E60330BF7250B57BAC014511B56DF1FFFEE7F1FFFE1C0001FFFC0800F10000020001FFFC080205F0442A57E3ADA036
:409A8000B58A0361B58CC0BF44A08A011C01F1FFFF6FADA2B58AAC1A01609000EE0318A19125EEF29000F22E00AE44A844814512B57A4FE3F100016E440A0319B57A409044
:409AC0009001E609C00E448088011C01F1FFFF50ADA2B58A8801438043A1A510E7F430FFC09D40909002EE070311B57DF1FFFF40ADA2B58AC088031BB57E40B800298122DE
:409B0000F1000277F2000310B57C4001916CE6034001914CEE093004780EDFFE6FE048013FFCF1FFFBC8C06F3004780EDFFE6FE048013FFCF1FFFBBFC0660310B57C40013E
:409B4000916CE6034001914CEE093004780EDFFE6FE048013FFCF1FFFF1BC0553004780EDFFE6FE048013FFCF1FFFF12C04C3004780EDFFE6FE048083FFC40B09067EE04A0
:409B80004481F1000067C03F4481F1FFF9E9C03B3004780EDFFE6FE04900BFFF0350B56DADA0B56EF1FFFD7CC02E3002780EDFFE6FE04901FFFEF100008BC0253002780E8A
:409BC000DFFE6FE04901FFFEF1FFFEE2C01C3002780EDFFE6FE04908FFFE0310B57C4001916CE6034001914CEE040301B58A0B18C00A40009068EE040300B58A0F08C00323
:409C00000300B58A0B08AC1AF22EFF45ADA5B58CE6030330B58CAC000300B58A070F0001FFFC000F45006A47006A58003663008C64000265006A66006A67006A6900026E1A
:139C400000CA6F00367000B87300A6750036780036010205
:409C54000800058044184512B561F10001E3ADA1B580E902ADA0B580ADA1B57FE90830017350B57B0310B57F45500350B57F30087650B57BEE04450000807350B57BADA195
:409C9400B580EE0330010350B5800310B56290FCE1037550B580EA06ADA3B58031650351B57EC00680017150B58030660350B57E4481F1FFF94B07010001FFFC080005FC2C
:409CD40044123800442B3C00031AB57FE022031DB57BAA6D0001EE0242A0ED023001C0013000440C9C00EE15F1FFFAC94409AA6D0010E6050310B580A509E2014409A19A17
:409D140044A9C0053120F1FFFE29880189FF9900EAF930107650B57BEE023AFFC002031AB5803900C00644B08B011C01F1FFFE1689014390A5A0EF02AC1BEEF54190A0089F
:409D54009C00E60F0311B57FF1FFFD510350B57FC0043120F1FFFE0288010310B57FA580EBF87058B58AADA0B57B0310B57B0350B5800310B5800350B57F073F0001FFFCF4
:409D9400080E05FC441D442B5B7744375BB73A00ADCEBFF35F77ADCB0001ADCB0005ADCB0006ADCB0002ADCB000419DC44C8002981A0F1000114F2003100C00D3101C00B64
:409DD4003103C0093106C0073102C0053104C0033105C001310744A2BC3A450000F0A0A0A0101C0A9A03E6349A04E6509A05E6539A06E6689A07E6699A08F22600A29AFED9
:409E1400E6099AFFE6039A02EED0C009AC0B48D0BFFFC09C09CB000148D0BFFFC0979C23E6139C2BE6099C2DE6039C20EEBEC00830017B0BA001CFB930027B0BA001CFB582
:409E540030047B0BA001CFB130087B0BA001CFAD9C2AEE0B5B775FB7AB0700041E705F774900BFFF4B0B0005CFA0A5A2E6059C30EE0330407B0BA00149B08005310AB11086
:409E940044C181D0A0104B0B0005CF8F5B7737015B375F77CF8A9C2AEE0B5B775FB7AB0700041E705F774900BFFF4B0B0006CF7D49B08006310AB11044C181D0A0104B0BBD
:409ED4000006CF734BCB0002CF7044C1F10000944B0B000444C1F10000739000E60330207B0BA001ADDB0005E90830017B0BA00149B0800545504B0B00055B77ADDEBFF31F
:409F14005F7701609000EE03ADDB0006E9109C65E6089C45E6069C67E6049C47E6029C66EE0431064B1B0006C002ADCB00069C73F22EFF3B9000F22EFF3830107B0BA001CC
:409F5400CF3409CB00024BCB000344D0073F0001FFFC002320000223000225001A2A000E2B00022D00022E000A30000631000632000633000634000635000636000637004A
:3F9F9400063800063900064500164700164C00125800166300166400166500166600166700166800126900166C00126E00166F0016700016730016750016780016001E5A
:409FD40008009100E102917FE2023000C00645000070A0101800AA2000080001FFFC05F01B9AE0051D9BA58BE6028902FDBA1A9078F08010070FFFFC080005804418F1FF6F
:40A01400FFDF9000E60344808020C001448007010001FFFC080405E0441A4428390044813200330CF1FFFCA05BCAADDEBFFCE64D6BC0AA600080E60209C800015FC1BC1118
:40A05400BB815FD0BC10BA90AA5100FFEE0A5FD2BC12BA92EE03AD980302C037AD980304C0349100E604AAB00080000081FFBC508182C00A4402BBB29209E3043205AE20B4
:40A094008901C001BC1081FF9100EAF4C00A4402BBC29202EF043205B22089FFC001BA1081019100E1F44B9800013100C00C4402BBC248838002A0130E23AAA00FFFFFFF43
:40A0D400320AB2208101910AE7F207070001FFFC00000000000000040404040400040A0A0000000000000A1F0A1F0A00040F140E051E04181902040813030E0A0C081513B1
:40A114000E0404000000000001020404040201100804040408100004151F1504000004041F040400000000000002040000000E0000000000000000060600010204081000E8
:40A154000E11131519110E040C040404041F0E11010608101F0E11010601110E1011111F0101011F10101E01110E0E11101E11110E1F0101020404040E11110E11110E0E71
:40A1940011110F01010100040400040400000004040004080102040804020100001F001F0000100804020408100E1102040400040E11151517100F040A11111F11111E1159
:40A1D400111E11111F0E11101010110E1E11111111111F1F10101C10101F1F10101C1010100E11101711110E1111111F1111111F04040404041F1F02020202120C111214ED
:40A21400181412111010101010101F111B1511111111111119151311110E11111111110E1E11111E1010100E11111115120D1E11111E1412110E11100E01110E1F040404A1
:40A254000404041111111111110E11111111110A0411111111151B1111110A040A111111110A040404041F11020408111F0E08080808080E001008040201000E02020202E3
:40A29400020E040A11000000000000000000001F080400000000000000000C12120D0010101E11111E0000000F10100F0001010F11110F00000E111E100F0609081E080854
:40A2D40008000E11110F010E0010101E111111000004000404040002020202120C0011121C14121100080808080808000000111B1511000000161911110000000E11110EC6
:40A31400000E09090E0808000E110E0202010000080E0808080000070806010E0000040E0404040000001111110E00000011110A0400000011151B110000110A040A11002C
:40A3540000110A04040400001F0204081F06080810080806040404040404040C02020102020C000A150000000000000001000000020000000400000008000000100000009F
:28A394002000000040B84300000000B843000092A6B86630343A35383A3436004D6172202031203230313100D1
:00000001FF
